{
  "_format": "hh-sol-artifact-1",
  "contractName": "StakingRewards",
  "sourceName": "contracts/emre.sol",
  "abi": [
    {
      "inputs": [
        {
          "internalType": "address",
          "name": "_stakingToken",
          "type": "address"
        },
        {
          "internalType": "address",
          "name": "_rewardsToken",
          "type": "address"
        }
      ],
      "stateMutability": "nonpayable",
      "type": "constructor"
    },
    {
      "anonymous": false,
      "inputs": [
        {
          "indexed": true,
          "internalType": "address",
          "name": "previousOwner",
          "type": "address"
        },
        {
          "indexed": true,
          "internalType": "address",
          "name": "newOwner",
          "type": "address"
        }
      ],
      "name": "OwnershipTransferred",
      "type": "event"
    },
    {
      "inputs": [
        {
          "internalType": "address",
          "name": "",
          "type": "address"
        }
      ],
      "name": "balanceOf",
      "outputs": [
        {
          "internalType": "uint256",
          "name": "",
          "type": "uint256"
        }
      ],
      "stateMutability": "view",
      "type": "function"
    },
    {
      "inputs": [],
      "name": "duration",
      "outputs": [
        {
          "internalType": "uint256",
          "name": "",
          "type": "uint256"
        }
      ],
      "stateMutability": "view",
      "type": "function"
    },
    {
      "inputs": [
        {
          "internalType": "address",
          "name": "_account",
          "type": "address"
        }
      ],
      "name": "earned",
      "outputs": [
        {
          "internalType": "uint256",
          "name": "",
          "type": "uint256"
        }
      ],
      "stateMutability": "view",
      "type": "function"
    },
    {
      "inputs": [],
      "name": "finishAt",
      "outputs": [
        {
          "internalType": "uint256",
          "name": "",
          "type": "uint256"
        }
      ],
      "stateMutability": "view",
      "type": "function"
    },
    {
      "inputs": [],
      "name": "getReward",
      "outputs": [],
      "stateMutability": "nonpayable",
      "type": "function"
    },
    {
      "inputs": [],
      "name": "lastTimeRewardApplicable",
      "outputs": [
        {
          "internalType": "uint256",
          "name": "",
          "type": "uint256"
        }
      ],
      "stateMutability": "view",
      "type": "function"
    },
    {
      "inputs": [
        {
          "internalType": "uint256",
          "name": "_amount",
          "type": "uint256"
        }
      ],
      "name": "notifyRewardAmount",
      "outputs": [],
      "stateMutability": "nonpayable",
      "type": "function"
    },
    {
      "inputs": [],
      "name": "owner",
      "outputs": [
        {
          "internalType": "address",
          "name": "",
          "type": "address"
        }
      ],
      "stateMutability": "view",
      "type": "function"
    },
    {
      "inputs": [],
      "name": "renounceOwnership",
      "outputs": [],
      "stateMutability": "nonpayable",
      "type": "function"
    },
    {
      "inputs": [],
      "name": "rewardPerToken",
      "outputs": [
        {
          "internalType": "uint256",
          "name": "",
          "type": "uint256"
        }
      ],
      "stateMutability": "view",
      "type": "function"
    },
    {
      "inputs": [],
      "name": "rewardPerTokenStored",
      "outputs": [
        {
          "internalType": "uint256",
          "name": "",
          "type": "uint256"
        }
      ],
      "stateMutability": "view",
      "type": "function"
    },
    {
      "inputs": [],
      "name": "rewardRate",
      "outputs": [
        {
          "internalType": "uint256",
          "name": "",
          "type": "uint256"
        }
      ],
      "stateMutability": "view",
      "type": "function"
    },
    {
      "inputs": [
        {
          "internalType": "address",
          "name": "",
          "type": "address"
        }
      ],
      "name": "rewards",
      "outputs": [
        {
          "internalType": "uint256",
          "name": "",
          "type": "uint256"
        }
      ],
      "stateMutability": "view",
      "type": "function"
    },
    {
      "inputs": [],
      "name": "rewardsToken",
      "outputs": [
        {
          "internalType": "contract IERC20",
          "name": "",
          "type": "address"
        }
      ],
      "stateMutability": "view",
      "type": "function"
    },
    {
      "inputs": [
        {
          "internalType": "uint256",
          "name": "_duration",
          "type": "uint256"
        }
      ],
      "name": "setRewardsDuration",
      "outputs": [],
      "stateMutability": "nonpayable",
      "type": "function"
    },
    {
      "inputs": [
        {
          "internalType": "uint256",
          "name": "_amount",
          "type": "uint256"
        }
      ],
      "name": "stake",
      "outputs": [],
      "stateMutability": "nonpayable",
      "type": "function"
    },
    {
      "inputs": [],
      "name": "stakingToken",
      "outputs": [
        {
          "internalType": "contract IERC20",
          "name": "",
          "type": "address"
        }
      ],
      "stateMutability": "view",
      "type": "function"
    },
    {
      "inputs": [],
      "name": "totalSupply",
      "outputs": [
        {
          "internalType": "uint256",
          "name": "",
          "type": "uint256"
        }
      ],
      "stateMutability": "view",
      "type": "function"
    },
    {
      "inputs": [
        {
          "internalType": "address",
          "name": "newOwner",
          "type": "address"
        }
      ],
      "name": "transferOwnership",
      "outputs": [],
      "stateMutability": "nonpayable",
      "type": "function"
    },
    {
      "inputs": [],
      "name": "updatedAt",
      "outputs": [
        {
          "internalType": "uint256",
          "name": "",
          "type": "uint256"
        }
      ],
      "stateMutability": "view",
      "type": "function"
    },
    {
      "inputs": [
        {
          "internalType": "address",
          "name": "",
          "type": "address"
        }
      ],
      "name": "userRewardPerTokenPaid",
      "outputs": [
        {
          "internalType": "uint256",
          "name": "",
          "type": "uint256"
        }
      ],
      "stateMutability": "view",
      "type": "function"
    },
    {
      "inputs": [
        {
          "internalType": "uint256",
          "name": "_amount",
          "type": "uint256"
        }
      ],
      "name": "withdraw",
      "outputs": [],
      "stateMutability": "nonpayable",
      "type": "function"
    }
  ],
  "bytecode": "0x60c06040523480156200001157600080fd5b50604051620019a2380380620019a28339818101604052810190620000379190620001fd565b620000576200004b620000c760201b60201c565b620000cf60201b60201c565b8173ffffffffffffffffffffffffffffffffffffffff1660808173ffffffffffffffffffffffffffffffffffffffff16815250508073ffffffffffffffffffffffffffffffffffffffff1660a08173ffffffffffffffffffffffffffffffffffffffff1681525050505062000244565b600033905090565b60008060009054906101000a900473ffffffffffffffffffffffffffffffffffffffff169050816000806101000a81548173ffffffffffffffffffffffffffffffffffffffff021916908373ffffffffffffffffffffffffffffffffffffffff1602179055508173ffffffffffffffffffffffffffffffffffffffff168173ffffffffffffffffffffffffffffffffffffffff167f8be0079c531659141344cd1fd0a4f28419497f9722a3daafe3b4186f6b6457e060405160405180910390a35050565b600080fd5b600073ffffffffffffffffffffffffffffffffffffffff82169050919050565b6000620001c58262000198565b9050919050565b620001d781620001b8565b8114620001e357600080fd5b50565b600081519050620001f781620001cc565b92915050565b6000806040838503121562000217576200021662000193565b5b60006200022785828601620001e6565b92505060206200023a85828601620001e6565b9150509250929050565b60805160a05161171c620002866000396000818161088901528181610ae20152610f2001526000818161067801528181610bc70152610d3c015261171c6000f3fe608060405234801561001057600080fd5b50600436106101415760003560e01c80637519ab50116100b8578063a694fc3a1161007c578063a694fc3a14610342578063cc1a378f1461035e578063cd3daf9d1461037a578063d1af0c7d14610398578063df136d65146103b6578063f2fde38b146103d457610141565b80637519ab501461029a5780637b0a47ee146102b857806380faa57d146102d65780638b876347146102f45780638da5cb5b1461032457610141565b80633c6b16ab1161010a5780633c6b16ab146101fe5780633d18b9121461021a57806367d3b4881461022457806370a0823114610242578063715018a61461027257806372f702f31461027c57610141565b80628cc262146101465780630700037d146101765780630fb5a6b4146101a657806318160ddd146101c45780632e1a7d4d146101e2575b600080fd5b610160600480360381019061015b9190611193565b6103f0565b60405161016d91906111d9565b60405180910390f35b610190600480360381019061018b9190611193565b6104f2565b60405161019d91906111d9565b60405180910390f35b6101ae61050a565b6040516101bb91906111d9565b60405180910390f35b6101cc610510565b6040516101d991906111d9565b60405180910390f35b6101fc60048036038101906101f79190611220565b610516565b005b61021860048036038101906102139190611220565b610728565b005b61022261096a565b005b61022c610b93565b60405161023991906111d9565b60405180910390f35b61025c60048036038101906102579190611193565b610b99565b60405161026991906111d9565b60405180910390f35b61027a610bb1565b005b610284610bc5565b60405161029191906112ac565b60405180910390f35b6102a2610be9565b6040516102af91906111d9565b60405180910390f35b6102c0610bef565b6040516102cd91906111d9565b60405180910390f35b6102de610bf5565b6040516102eb91906111d9565b60405180910390f35b61030e60048036038101906103099190611193565b610c08565b60405161031b91906111d9565b60405180910390f35b61032c610c20565b60405161033991906112d6565b60405180910390f35b61035c60048036038101906103579190611220565b610c49565b005b61037860048036038101906103739190611220565b610e5d565b005b610382610eb3565b60405161038f91906111d9565b60405180910390f35b6103a0610f1e565b6040516103ad91906112ac565b60405180910390f35b6103be610f42565b6040516103cb91906111d9565b60405180910390f35b6103ee60048036038101906103e99190611193565b610f48565b005b6000600760008373ffffffffffffffffffffffffffffffffffffffff1673ffffffffffffffffffffffffffffffffffffffff16815260200190815260200160002054670de0b6b3a7640000600660008573ffffffffffffffffffffffffffffffffffffffff1673ffffffffffffffffffffffffffffffffffffffff16815260200190815260200160002054610483610eb3565b61048d9190611320565b600960008673ffffffffffffffffffffffffffffffffffffffff1673ffffffffffffffffffffffffffffffffffffffff168152602001908152602001600020546104d79190611354565b6104e191906113dd565b6104eb919061140e565b9050919050565b60076020528060005260406000206000915090505481565b60015481565b60085481565b3361051f610eb3565b60058190555061052d610bf5565b600381905550600073ffffffffffffffffffffffffffffffffffffffff168173ffffffffffffffffffffffffffffffffffffffff16146105fa57610570816103f0565b600760008373ffffffffffffffffffffffffffffffffffffffff1673ffffffffffffffffffffffffffffffffffffffff16815260200190815260200160002081905550600554600660008373ffffffffffffffffffffffffffffffffffffffff1673ffffffffffffffffffffffffffffffffffffffff168152602001908152602001600020819055505b6000821161060757600080fd5b81600960003373ffffffffffffffffffffffffffffffffffffffff1673ffffffffffffffffffffffffffffffffffffffff16815260200190815260200160002060008282546106569190611320565b92505081905550816008600082825461066f9190611320565b925050819055507f000000000000000000000000000000000000000000000000000000000000000073ffffffffffffffffffffffffffffffffffffffff1663a9059cbb33846040518363ffffffff1660e01b81526004016106d1929190611464565b602060405180830381600087803b1580156106eb57600080fd5b505af11580156106ff573d6000803e3d6000fd5b505050506040513d601f19601f8201168201806040525081019061072391906114c5565b505050565b610730610fcc565b600061073a610eb3565b600581905550610748610bf5565b600381905550600073ffffffffffffffffffffffffffffffffffffffff168173ffffffffffffffffffffffffffffffffffffffff16146108155761078b816103f0565b600760008373ffffffffffffffffffffffffffffffffffffffff1673ffffffffffffffffffffffffffffffffffffffff16815260200190815260200160002081905550600554600660008373ffffffffffffffffffffffffffffffffffffffff1673ffffffffffffffffffffffffffffffffffffffff168152602001908152602001600020819055505b600254421115610838576001548261082d91906113dd565b600481905550610878565b6000426002546108489190611320565b6004546108559190611354565b90506001548382610866919061140e565b61087091906113dd565b600481905550505b60006004541161088757600080fd5b7f000000000000000000000000000000000000000000000000000000000000000073ffffffffffffffffffffffffffffffffffffffff166370a08231306040518263ffffffff1660e01b81526004016108e091906112d6565b60206040518083038186803b1580156108f857600080fd5b505afa15801561090c573d6000803e3d6000fd5b505050506040513d601f19601f820116820180604052508101906109309190611507565b6001546004546109409190611354565b111561094b57600080fd5b60015442610959919061140e565b600281905550426003819055505050565b33610973610eb3565b600581905550610981610bf5565b600381905550600073ffffffffffffffffffffffffffffffffffffffff168173ffffffffffffffffffffffffffffffffffffffff1614610a4e576109c4816103f0565b600760008373ffffffffffffffffffffffffffffffffffffffff1673ffffffffffffffffffffffffffffffffffffffff16815260200190815260200160002081905550600554600660008373ffffffffffffffffffffffffffffffffffffffff1673ffffffffffffffffffffffffffffffffffffffff168152602001908152602001600020819055505b6000600760003373ffffffffffffffffffffffffffffffffffffffff1673ffffffffffffffffffffffffffffffffffffffff1681526020019081526020016000205490506000811115610b8f576000600760003373ffffffffffffffffffffffffffffffffffffffff1673ffffffffffffffffffffffffffffffffffffffff168152602001908152602001600020819055507f000000000000000000000000000000000000000000000000000000000000000073ffffffffffffffffffffffffffffffffffffffff1663a9059cbb33836040518363ffffffff1660e01b8152600401610b3b929190611464565b602060405180830381600087803b158015610b5557600080fd5b505af1158015610b69573d6000803e3d6000fd5b505050506040513d601f19601f82011682018060405250810190610b8d91906114c5565b505b5050565b60025481565b60096020528060005260406000206000915090505481565b610bb9610fcc565b610bc3600061104a565b565b7f000000000000000000000000000000000000000000000000000000000000000081565b60035481565b60045481565b6000610c034260025461110e565b905090565b60066020528060005260406000206000915090505481565b60008060009054906101000a900473ffffffffffffffffffffffffffffffffffffffff16905090565b33610c52610eb3565b600581905550610c60610bf5565b600381905550600073ffffffffffffffffffffffffffffffffffffffff168173ffffffffffffffffffffffffffffffffffffffff1614610d2d57610ca3816103f0565b600760008373ffffffffffffffffffffffffffffffffffffffff1673ffffffffffffffffffffffffffffffffffffffff16815260200190815260200160002081905550600554600660008373ffffffffffffffffffffffffffffffffffffffff1673ffffffffffffffffffffffffffffffffffffffff168152602001908152602001600020819055505b60008211610d3a57600080fd5b7f000000000000000000000000000000000000000000000000000000000000000073ffffffffffffffffffffffffffffffffffffffff166323b872dd3330856040518463ffffffff1660e01b8152600401610d9793929190611534565b602060405180830381600087803b158015610db157600080fd5b505af1158015610dc5573d6000803e3d6000fd5b505050506040513d601f19601f82011682018060405250810190610de991906114c5565b5081600960003373ffffffffffffffffffffffffffffffffffffffff1673ffffffffffffffffffffffffffffffffffffffff1681526020019081526020016000206000828254610e39919061140e565b925050819055508160086000828254610e52919061140e565b925050819055505050565b610e65610fcc565b4260025410610ea9576040517f08c379a0000000000000000000000000000000000000000000000000000000008152600401610ea0906115c8565b60405180910390fd5b8060018190555050565b6000806008541415610ec9576005549050610f1b565b600854670de0b6b3a7640000600354610ee0610bf5565b610eea9190611320565b600454610ef79190611354565b610f019190611354565b610f0b91906113dd565b600554610f18919061140e565b90505b90565b7f000000000000000000000000000000000000000000000000000000000000000081565b60055481565b610f50610fcc565b600073ffffffffffffffffffffffffffffffffffffffff168173ffffffffffffffffffffffffffffffffffffffff161415610fc0576040517f08c379a0000000000000000000000000000000000000000000000000000000008152600401610fb79061165a565b60405180910390fd5b610fc98161104a565b50565b610fd4611128565b73ffffffffffffffffffffffffffffffffffffffff16610ff2610c20565b73ffffffffffffffffffffffffffffffffffffffff1614611048576040517f08c379a000000000000000000000000000000000000000000000000000000000815260040161103f906116c6565b60405180910390fd5b565b60008060009054906101000a900473ffffffffffffffffffffffffffffffffffffffff169050816000806101000a81548173ffffffffffffffffffffffffffffffffffffffff021916908373ffffffffffffffffffffffffffffffffffffffff1602179055508173ffffffffffffffffffffffffffffffffffffffff168173ffffffffffffffffffffffffffffffffffffffff167f8be0079c531659141344cd1fd0a4f28419497f9722a3daafe3b4186f6b6457e060405160405180910390a35050565b60008183111561111e5781611120565b825b905092915050565b600033905090565b600080fd5b600073ffffffffffffffffffffffffffffffffffffffff82169050919050565b600061116082611135565b9050919050565b61117081611155565b811461117b57600080fd5b50565b60008135905061118d81611167565b92915050565b6000602082840312156111a9576111a8611130565b5b60006111b78482850161117e565b91505092915050565b6000819050919050565b6111d3816111c0565b82525050565b60006020820190506111ee60008301846111ca565b92915050565b6111fd816111c0565b811461120857600080fd5b50565b60008135905061121a816111f4565b92915050565b60006020828403121561123657611235611130565b5b60006112448482850161120b565b91505092915050565b6000819050919050565b600061127261126d61126884611135565b61124d565b611135565b9050919050565b600061128482611257565b9050919050565b600061129682611279565b9050919050565b6112a68161128b565b82525050565b60006020820190506112c1600083018461129d565b92915050565b6112d081611155565b82525050565b60006020820190506112eb60008301846112c7565b92915050565b7f4e487b7100000000000000000000000000000000000000000000000000000000600052601160045260246000fd5b600061132b826111c0565b9150611336836111c0565b925082821015611349576113486112f1565b5b828203905092915050565b600061135f826111c0565b915061136a836111c0565b9250817fffffffffffffffffffffffffffffffffffffffffffffffffffffffffffffffff04831182151516156113a3576113a26112f1565b5b828202905092915050565b7f4e487b7100000000000000000000000000000000000000000000000000000000600052601260045260246000fd5b60006113e8826111c0565b91506113f3836111c0565b925082611403576114026113ae565b5b828204905092915050565b6000611419826111c0565b9150611424836111c0565b9250827fffffffffffffffffffffffffffffffffffffffffffffffffffffffffffffffff03821115611459576114586112f1565b5b828201905092915050565b600060408201905061147960008301856112c7565b61148660208301846111ca565b9392505050565b60008115159050919050565b6114a28161148d565b81146114ad57600080fd5b50565b6000815190506114bf81611499565b92915050565b6000602082840312156114db576114da611130565b5b60006114e9848285016114b0565b91505092915050565b600081519050611501816111f4565b92915050565b60006020828403121561151d5761151c611130565b5b600061152b848285016114f2565b91505092915050565b600060608201905061154960008301866112c7565b61155660208301856112c7565b61156360408301846111ca565b949350505050565b600082825260208201905092915050565b7f726577617264206475726174696f6e206e6f742066696e69736865642e000000600082015250565b60006115b2601d8361156b565b91506115bd8261157c565b602082019050919050565b600060208201905081810360008301526115e1816115a5565b9050919050565b7f4f776e61626c653a206e6577206f776e657220697320746865207a65726f206160008201527f6464726573730000000000000000000000000000000000000000000000000000602082015250565b600061164460268361156b565b915061164f826115e8565b604082019050919050565b6000602082019050818103600083015261167381611637565b9050919050565b7f4f776e61626c653a2063616c6c6572206973206e6f7420746865206f776e6572600082015250565b60006116b060208361156b565b91506116bb8261167a565b602082019050919050565b600060208201905081810360008301526116df816116a3565b905091905056fea264697066735822122047b242240361b250a681b67a28dcf95dad9e5fef1c98798d4df38f22d0a07e5864736f6c63430008090033",
  "linkReferences": {},
  "deployedLinkReferences": {}
}